:020000040800F2
:10000000880B002089010008B5270008B7270008E1
:10001000BB270008BF270008C32700080000000016
:10002000000000000000000000000000C7270008DA
:10003000C927000800000000CB270008CD270008D2
:10004000A3010008A3010008A3010008A301000800
:10005000A3010008A3010008A3010008A3010008F0
:10006000A3010008A3010008A3010008A3010008E0
:10007000A3010008A3010008A3010008A3010008D0
:10008000A3010008A3010008A3010008A3010008C0
:10009000A3010008A3010008A3010008A3010008B0
:1000A000A3010008A3010008A3010008A3010008A0
:1000B0008D300008E3250008A3010008A301000813
:1000C000A3010008A3010008A3010008A301000880
:1000D000A3010008992A0008594800082B45000888
:1000E000A3010008A3010008A301000800F002F822
:1000F00000F03AF80AA090E8000C82448344AAF188
:100100000107DA4501D100F02FF8AFF2090EBAE885
:100110000F0013F0010F18BFFB1A43F0010318473B
:10012000104C0000304C0000103A24BF78C878C151
:10013000FAD8520724BF30C830C144BF04680C60ED
:10014000704700000023002400250026103A28BF35
:1001500078C1FBD8520728BF30C148BF0B60704739
:100160001FB51FBD10B510BD04F0D5FB1146FFF73C
:10017000F7FF02F0D5F804F0F3FB03B4FFF7F2FF4A
:1001800003BC04F0F7FB000009488047094800471A
:10019000FEE7FEE7FEE7FEE7FEE7FEE7FEE7FEE737
:1001A000FEE7FEE704480549054A064B7047000094
:1001B000AD280008ED00000888050020880B00200D
:1001C000880700208807002031490143314A116027
:1001D000704770B5002100230F22C4780CB32D4C5A
:1001E000246804F4E064C4F5E064210AC1F1040366
:1001F000CA40447804FA03F1847814402143090189
:10020000254C0678A155047804F01F050124AC4064
:1002100005786D114FF0E02606EB8505C5F8004125
:1002200009E0047804F01F050124AC401B4D06785A
:10023000761145F8264070BD194A0A400243154B15
:100240001B1F1A60704739B1124A121D126802430F
:10025000104B1B1D1A6006E00E4A121D12688243E5
:100260000C4B1B1D1A607047042808D14FF0E02189
:10027000096941F004014FF0E022116107E04FF0FD
:10028000E021096921F004014FF0E022116170477B
:100290000000FA050CED00E000E400E080E100E081
:1002A00080FFFF1F10B50446FA48844208D101219F
:1002B000401500F04FFD0021601500F04BFD17E0E8
:1002C000F548844208D10121001500F043FD0021CA
:1002D000201500F03FFD0BE0F048844208D10121D9
:1002E000C80300F037FD00214FF4004000F032FD5C
:1002F00010BD30B50246002000235068E84C204075
:100300000D790C6844EA0524204350609068E54C60
:100310002040D1E902542C434D7944EA450420435E
:100320009060D06A20F470000C7C641EE4B2234319
:1003300040EA0350D06230BD00210160017141717B
:100340008160C16001210174704721B1826842F06F
:100350000102826003E0826822F00102826070473D
:1003600021B1826842F48072826003E0826822F4E4
:1003700080728260704710B50023CBB21AB1446816
:100380001C43446002E044689C43446010BD8168A3
:1003900041F0080181607047014600208A6812F030
:1003A000080F01D0012000E000207047816841F073
:1003B000040181607047014600208A6812F0040F32
:1003C00001D0012000E00020704721B1826842F492
:1003D000A002826003E0826822F4A002826070477B
:1003E000014600208A6812F4800F01D0012000E04D
:1003F0000020704710B50A4600210023416821F40F
:100400006041531E41EA4331416010BD21B1426851
:1004100042F40062426003E0426822F400624260FB
:100420007047F0B504460D4600200021092D11DD6E
:10043000E068A5F10A0606EB4607072606FA07F16B
:100440008843A5F10A0606EB460603FA06F10843BF
:10045000E0600CE0206905EB4507072606FA07F186
:10046000884305EB450603FA06F108432061072A95
:100470000FDA606B561E06EB86071F2606FA07F199
:100480008843561E06EB860605FA06F108436063AC
:1004900022E00D2A0FDA206BD61F06EB86071F26F7
:1004A00006FA07F18843D61F06EB860605FA06F121
:1004B0000843206310E0E06AA2F10D0606EB860710
:1004C0001F2606FA07F18843A2F10D0606EB860601
:1004D00005FA06F10843E062F0BD21B1826842F4FA
:1004E0008012826003E0826822F48012826070478A
:1004F0000146C86C80B2704766484C30006870474F
:1005000021B1426842F48062426003E0426822F412
:1005100080624260704721B1426842F4805242607A
:1005200003E0426822F48052426070470A4600218C
:10053000816821F4E04111438160704721B18268F4
:1005400042F40042826003E0826822F4004282604A
:10055000704721B1826842F40212826003E082682F
:1005600022F4021282607047014600208A6812F469
:10057000001F01D0012000E000207047F0B50446C4
:100580001546002000220026092911DDE068A1F1AE
:100590000A0707EB470C072707FA0CF29043A1F173
:1005A0000A0707EB470703FA07F21043E0600CE085
:1005B000206901EB410C072707FA0CF2904301EB8D
:1005C000410703FA07F210432061A06BC0F3015604
:1005D000EF1C06F1010CA7EB0C0707EB870C1F279C
:1005E00007FA0CF29043EF1C06F1010CA7EB0C0785
:1005F00007EB870701FA07F21043A063F0BD10B5BF
:100600000A4600210023816B21F44011531E41EA68
:100610000351816310BD08B5002300930090009B37
:100620000B440093009B1A6008BD08B502460020E9
:100630000090009201F12800009B1844009000985F
:10064000006880B208BD0A4600214168164B194077
:100650001143416070474162826270470A4600213F
:10066000416821F01F0111434160704740B10949C1
:100670000831096841F40001064A0832116007E0B8
:1006800004490831096821F40001024A0832116066
:10069000704700000024014000280140003C014058
:1006A000FFFEF0FFFDF7F1FFFFFD3FFF02460020D8
:1006B00013680B4201D0012000E000207047CA43BC
:1006C0000260704770B502460020002300240B1220
:1006D0005568CEB205EA060415681D4202D00CB179
:1006E000012000E0002070BD00220A12D343036005
:1006F0007047000010B50446CA48844208D1012161
:10070000042000F027FB0021042000F023FB46E03A
:10071000C548844208D10121082000F01BFB0021BC
:10072000082000F017FB3AE0C048844208D10121BC
:10073000102000F00FFB0021102000F00BFB2EE03A
:10074000BB48844208D10121202000F003FB002196
:10075000202000F0FFFA22E0B648844208D10121AF
:10076000402000F0F7FA0021402000F0F3FA16E0F4
:10077000B148844208D10121802000F0EBFA002129
:10078000802000F0E7FA0AE0AC48844207D101215A
:10079000801500F0DFFA0021A01500F0DBFA10BD93
:1007A00010B50121084600F0D5FA0021012000F023
:1007B000D1FA10BD2DE9F0410246002500260020A7
:1007C00000230024002791F803C00CF00F0591F8D6
:1007D00003C01CF0100F03D091F802C04CEA0505CD
:1007E00091F800C0BCF1000F31D0146800202BE05C
:1007F0004FF0010C0CFA00F3B1F800C00CEA03064C
:100800009E4220D183004FF00F0C0CFA03F7BC433B
:1008100005FA03FC4CEA040491F803C0BCF1280F6C
:1008200006D14FF0010C0CFA00FCC2F814C00AE02B
:1008300091F803C0BCF1480F05D14FF0010C0CFA40
:1008400000FCC2F810C0401C0828D1D31460B1F8D5
:1008500000C0BCF1FF0F34DD546800202EE000F131
:10086000080C4FF0010808FA0CF3B1F800C00CEACC
:1008700003069E4221D183004FF00F0C0CFA03F7C0
:10088000BC4305FA03FC4CEA040491F803C0BCF134
:10089000280F05D100F1080C08FA0CF8C2F81480F2
:1008A00091F803C0BCF1480F07D100F1080C4FF0DC
:1008B000010808FA0CF8C2F81080401C0828CED3B2
:1008C0005460BDE8F0814FF6FF7101800221817014
:1008D0000421C17070470246002093680B4201D08A
:1008E000012000E0002070470146886880B2704710
:1008F00002460020D3680B4201D0012000E0002016
:1009000070470146C86880B2704701617047416115
:1009100070470AB1016100E041617047C1607047F2
:100920004FF480320A438261816182618269826907
:10093000704702460020424B18684FF680731840FB
:1009400040EA021008433E4B186070473D49C861B9
:100950007047F0B50A46002300240021002500F06E
:100960000046B6F1004F02D1354EF16901E0344E38
:100970007168C0F3034583B200F44016B6F5401F1A
:1009800008D121F070612E4E766826F070662C4FEB
:100990007E6012E000F48016B6F5801F06D10326B3
:1009A00006FA05F4A14341F0706106E0460D3601F8
:1009B00003FA06F6B14341F0706122B1460D3601EB
:1009C00003FA06F6314300F00046B6F1004F02D1BB
:1009D0001B4EF16101E01A4E7160F0BD30B500228E
:1009E0008B071C0F0F2303FA04F2154B08338C10EE
:1009F00053F824309343124C08348D1044F82530BA
:100A000023468C1053F824308C07240F00FA04F48A
:100A100023430B4C08348D1044F8253030BD0A496F
:100A20000860704700080140000C014000100140C0
:100A30000014014000180140001C0140002001404A
:100A40000000014000002042DC002042DD48006838
:100A500040F00100DB49086008464068DA49084078
:100A6000D849486008460068D8490840D549086018
:100A70000846006820F4802008600846406820F49A
:100A8000FE0048604FF41F0088607047CD49096838
:100A900021F48031CB4A11601146096821F480218C
:100AA0001160B0F5803F03D0B0F5802F0ED106E085
:100AB000C449096841F48031C24A116007E0C14964
:100AC000096841F4A021BF4A116000E000BF00BFE7
:100AD000704710B501460022002300204A11012A68
:100AE00002D1B84C236806E0022A02D1B54C236A31
:100AF00001E0B44C636A01F01F02012494401C42DF
:100B000001D0012000E0002010BD38B50020009089
:100B10000024002500BF3120FFF7DBFF05460098C9
:100B2000401C00900098B0F5A06F01D0002DF2D0CD
:100B30003120FFF7CEFF08B1012400E00024204659
:100B400038BD014600209F4A106820F0F80040EAB6
:100B5000C100106070479E4908607047024600203F
:100B6000984B586820F47C1042EA01031843954BD7
:100B70005860704796490866704701460020914AC0
:100B8000506820F003000843506070478D4840686B
:100B900000F00C007047014600208A4A506820F09F
:100BA000F00008435060704701460020854A5068B5
:100BB00020F4E06008435060704701460020814AFD
:100BC000506820F4605040EAC1005060704729B17D
:100BD0007C4A527A02437B4B5A7204E0794A527A39
:100BE0008243784B5A7270477A49086070470146D1
:100BF0000020744A506820F4404008435060704719
:100C00000021754A11706F4A82F82010012802D025
:100C1000042808D103E001216F4A117004E0052186
:100C20006D4A117000E000BF00BF70476B4908605B
:100C300070476449096A0143624A11627047674913
:100C400044390860704730B5002100220024002399
:100C50005C4D6D6805F00C0121B1042905D008290F
:100C600023D105E05E4D056022E05D4D05601FE08B
:100C7000544D6D6805F47012524D6D6805F4803462
:100C8000022505EB92421CB9564D554305600BE019
:100C90004C4D6D6815F4003F03D0524D554305602F
:100CA00002E04F4D5543056002E04D4D056000BF29
:100CB00000BF444D6D6805F0F00109094A4D6B5CB9
:100CC0000568DD4045603F4D6D6805F4E061090A47
:100CD000454D6B5C4568DD4085603A4D6D6805F4B7
:100CE0006051C90A404D6B5C4568DD40C560354DBB
:100CF0006D6805F44041890B3C4D6B5CC568B5FBE4
:100D0000F3F5056130BD29B12E4A526902432D4BDE
:100D10005A6104E02B4A526982432A4B5A61704758
:100D200029B1284A92690243264B9A6104E0254A78
:100D300092698243234B9A61704729B1214AD26953
:100D40000243204BDA6104E01E4AD26982431D4B04
:100D5000DA61704729B11B4AD2680243194BDA6045
:100D600004E0184AD2688243164BDA60704729B112
:100D7000144A12690243134B1A6104E0114A1269C2
:100D80008243104B1A61704714494039086070471C
:100D90000F49C86470470B49C87170470948406AD9
:100DA00040F0807007494862704701460020054ABC
:100DB00092680A4201D0012000E0002070470149FA
:100DC00088727047001002400000FFF8FFFFF6FE37
:100DD00000004242D80042422010024080044242B9
:100DE00000127A0000093D000000002010000020E1
:100DF00010B50446BE48844208D101218014FFF793
:100E0000A9FF0021A014FFF7A5FF16E0B94884420E
:100E100008D101210014FFF7AAFF00212014FFF7D9
:100E2000A6FF0AE0B448844207D10121C013FFF7AE
:100E30009EFF0021E013FFF79AFF10BD10B50022BE
:100E4000028802F441520B884C8823438C88234348
:100E5000CC8823430C8923434C8923438C89234327
:100E6000CC8923431A430280838B4FF2FF742340C3
:100E700083830B8A038210BD2DE9F04F85B00546B0
:100E80000C464FF0000902274FF000084FF0010B0D
:100E90000026B246A88B4FF240010840A8830220EA
:100EA0002884B5F81C90A068022801D100BF38E062
:100EB000A08810B94FF0010B01E04FF0020B8D48F4
:100EC000854200D100E000BF6846FFF7BCFEDDF8B8
:100ED00000A0E088B0F5007F0AD14FEA1A2000EBAD
:100EE00080004000A168B0FBF1F0401D86B20BE02D
:100EF0004FEA4B10BAFBF0F000EB80004000A16815
:100F0000B0FBF1F0401D86B20A20B6FBF0F606F009
:100F10000108A6EB0800C0F34F074FF6FF7000EA88
:100F20000828022F01DBFF2F02DD02274FF0000807
:100F3000E08840EA080038432884A088A189084353
:100F4000618808432188084340F4006040EA0909A9
:100F5000A5F81C9005B0BDE8F08F0021018041800C
:100F60008180C180018141818181C181072101820C
:100F700070470021018041808180C1800221816011
:100F800000218181704721B1028842F04002028035
:100F900004E002884FF6BF731A400280704721B107
:100FA000828B42F48062828304E0828B4FF6FF33AF
:100FB0001A408283704730B5002400230C110125AC
:100FC000A540ABB21AB185881D43858002E08588B3
:100FD0009D43858030BD1AB183880B43838002E036
:100FE00083888B438380704781817047014688895D
:100FF0007047A1F57E42FF3A04D0028842F4807225
:10100000028004E002884FF6FF631A4002807047B6
:1010100021B1828842F00402828004E082884FF687
:10102000FB731A408280704702884FF2FF731A40A8
:10103000028002880A4302807047018841F480518F
:101040000180704721B1028842F40052028004E01E
:1010500002884DF6FF731A40028070470246002056
:10106000012901D0108B00E0908A70470146088A60
:101070007047B1F5804F04D1028842F4804202806B
:1010800004E002884BF6FF731A4002807047024664
:10109000002013890B4201D0012000E0002070479E
:1010A000CA4302817047F0B50246002000240023A5
:1010B000002501F00F070126BE40B4B20B11012636
:1010C0009E40B3B2968806EA03051689264202D0EE
:1010D0000DB1012000E00020F0BD10B5002201F0AC
:1010E0000F040123A3409AB2D343038110BD000033
:1010F0000030014000380040003C004010B504467C
:10110000FE48844208D10121C014FFF723FE0021CC
:10111000E014FFF71FFEC4E0B4F1804F08D10121B5
:101120000846FFF724FE00210120FFF720FEB8E06B
:10113000F348844208D101210220FFF718FE002164
:101140000220FFF714FEACE0EE48844208D10121F2
:101150000420FFF70CFE00210420FFF708FEA0E0AA
:10116000E948844208D101210820FFF700FE002150
:101170000820FFF7FCFD94E0E448844208D10121F7
:101180001020FFF7F4FD00211020FFF7F0FD88E0AC
:10119000DF48844208D101212020FFF7E8FD00212B
:1011A0002020FFF7E4FD7CE0DA48844208D10121E9
:1011B0004014FFF7CFFD00216014FFF7CBFD70E076
:1011C000D548844209D10121C804FFF7C3FD00219D
:1011D0004FF40020FFF7BEFD63E0D048844209D100
:1011E00001210805FFF7B6FD00214FF48010FFF73D
:1011F000B1FD56E0CA48844209D101214805FFF7F4
:10120000A9FD00214FF40010FFF7A4FD49E0C548F7
:10121000844208D101214020FFF7A9FD0021402090
:10122000FFF7A5FD3DE0C048844208D101218020A0
:10123000FFF79DFD00218020FFF799FD31E0BB48BD
:10124000844208D101218015FFF791FD0021A015EE
:10125000FFF78DFD25E0B648844209D1012108043D
:10126000FFF778FD00214FF48030FFF773FD18E0A1
:10127000B048844209D101214804FFF76BFD0021E9
:101280004FF40030FFF766FD0BE0AB48844208D115
:1012900001218804FFF75EFD00214FF48020FFF755
:1012A00059FD10BD00220288944B98420ED0994BF4
:1012B00098420BD0B0F1804F08D0914B984205D0A6
:1012C000904B984202D0904B984204D14FF68F73C6
:1012D0001A404B881A438D4B984207D08C4B98424A
:1012E00004D04FF6FF431A40CB881A4302808B8804
:1012F00083850B880385814B98420BD0854B9842A0
:1013000008D08B4B984205D08A4B984202D08A4B2A
:10131000984201D10B7A038601238382704770B50E
:10132000002400220023058C4FF6FE76354005840C
:10133000028C8388048B4FF68F752C40B51E2C4091
:101340000D882C43751E2A400D892A434D882A4357
:101350006A4DA8420BD06F4DA84208D0744DA842E8
:1013600005D0744DA84202D0734DA84213D14FF658
:10137000F7752A404D892A434FF6FB752A408D8820
:101380002A434FF6FF652B404FF6FF552B408D89C2
:101390002B43CD892B4383800483CD8885860284AB
:1013A00070BD70B5002400220023058C4FF6EF7647
:1013B00035400584028C8388048B48F6FF752C40E9
:1013C0004FF6FF452C400D884FF6FF7606EA0525BF
:1013D0002C434FF6DF752A400D8906EA05152A438E
:1013E0004D8806EA05152A43444DA84202D0494DCE
:1013F000A8421DD14FF67F752A404D894FF6FF76E2
:1014000006EA05152A434FF6BF752A408D8806EA7D
:1014100005152A434FF6FF352B404FF2FF752B4041
:101420008D8906EA85052B43CD8906EA85052B4380
:1014300083800483CD880587028470BD70B5002445
:1014400000220023058C4FF6FF6635400584028C90
:101450008388848B4FF68F752C404FF6FC752C409B
:101460000D882C434FF6FF552A400D894FF6FF7625
:1014700006EA05252A434D8806EA05252A431F4D1D
:10148000A84202D0234DA8421DD14FF2FF752A4039
:101490004D894FF6FF7606EA05252A434FF6FF35BC
:1014A0002A408D8806EA05252A434EF6FF752B4013
:1014B0004DF6FF752B408D8906EA05152B43CD8926
:1014C00006EA05152B4383808483CD8885870284B3
:1014D00070BD70B5002200230024058C4EF6FF7607
:1014E00035400584038C8488828B48F6FF752A403A
:1014F0004FF6FF452A400D8820E00000002C0140F7
:101500000004004000080040000C004000100040B3
:101510000014004000340140004C014000500140E4
:101520000054014000180040001C00400020004012
:101530000040014000440140004801404FF6FF7662
:1015400006EA05252A434DF6FF752B400D8906EA6C
:1015500005352B434D8806EA05352B43FA4DA84245
:1015600002D0FA4DA84208D14BF6FF752C408D8968
:101570004FF6FF7606EA85152C4384808283CD885A
:10158000A0F84050038470BD828B4FF2FF331A40A5
:101590008283828B4FF6FF7303EA01231A4382830F
:1015A0007047F0B50C461546002200210026078C36
:1015B0004EF6FF7C07EA0C070784828B018C4FF6FE
:1015C000FF7707EA043640F6FF473A404FF6FF77C9
:1015D00007EA05273A434FF6FF7707EA03373A430E
:1015E000D94FB8420ED0D94FB8420BD0B0F1804F8E
:1015F00008D0D74FB84205D0D64FB84202D0D64F08
:10160000B84206D14DF6FF77394046F4805739434A
:1016100005E047F6FF57394044F480573943828349
:101620000184F0BD828B4FF6F3731A408283828B64
:101630000A4382837047F0B50C461546002200210C
:101640000026078C4FF6FF6C07EA0C070784828B95
:10165000018C4FF6FF7707EA04264FF60C773A40E5
:101660004FF6FF7707EA03172F433A43B64FB842C6
:101670000ED0B64FB8420BD0B0F1804F08D0B44F67
:10168000B84205D0B34FB84202D0B34FB84206D1EA
:101690004FF6FF57394046F48077394305E04FF263
:1016A000FF57394044F48077394382830184F0BD89
:1016B000028B4FF2FF331A400283028B4FF6FF7307
:1016C00003EA01231A4302837047F0B50C4615461E
:1016D000002200210026078C4FF6EF7C07EA0C075A
:1016E0000784028B018C4FF6FF7707EA041640F659
:1016F000FF473A404FF6FF7707EA03373A434FF682
:10170000FF7707EA05273A438F4FB8420ED08F4F35
:10171000B8420BD0B0F1804F08D08D4FB84205D001
:101720008C4FB84202D08C4FB84206D14FF6DF77CB
:10173000394046F01007394305E04FF65F773940EE
:1017400044F01007394302830184F0BD028B4FF649
:10175000F3731A400283028B0A4302837047F0B589
:101760000C46154600220021068C4FF6FE773E40BF
:101770000684028B018C4FF60C7632407E1C06EA02
:1017800003162E433243704EB0420ED06F4EB0421D
:101790000BD0B0F1804F08D06D4EB04205D06D4EE9
:1017A000B04202D06C4EB04206D14FF6FD763140C9
:1017B00044F00106314305E04FF6F576314044F040
:1017C0000106314302830184F0BD70B505460C4625
:1017D0005D4885420ED05D4885420BD0B5F1804F03
:1017E00008D05B48854205D05A48854202D05A4805
:1017F000854200D100E000BF208850B92389A2882B
:1018000061882846FFF7ABFFE1882846FFF79EFF77
:1018100025E0208804280AD12389A28861882846E7
:10182000FFF753FFE1882846FFF742FF17E02088C3
:1018300008280AD12389A28861882846FFF7FBFE81
:10184000E1882846FFF7EEFE09E02389A288618837
:101850002846FFF7A6FEE1882846FFF795FE70BDF3
:101860002DE9F04105460C4600260127608808B99D
:10187000022600E00026A088012801D1022700E00E
:1018800001272088A0B92389A28861882846FFF70C
:1018900066FFE1882846FFF759FF23893A4631461B
:1018A0002846FFF712FFE1882846FFF701FF13E003
:1018B0002389A28861882846FFF707FFE188284628
:1018C000FFF7F6FE23893A4631462846FFF747FFE1
:1018D000E1882846FFF73AFFBDE8F0810A884B8887
:1018E0001A438B881A43CB881A430B891A434B89B6
:1018F0001A438B891A43A0F8442070474FF6FF71B2
:10190000818000210180C1804180017270470021E7
:10191000018041808180C180018141818181C181BB
:101920007047002101804180012181800021C18018
:10193000018170470021018041808180C180018147
:101940004181818170470000002C0140003401403A
:101950000004004000080040000C004021B1028853
:1019600042F00102028004E002884FF6FE731A4042
:101970000280704731B1B0F8442042F40042A0F830
:10198000442005E0B0F84420C2F30E02A0F8442041
:1019900070471AB183890B43838102E083898B43AB
:1019A000838170478182704741EA0203A0F8483082
:1019B00070471AB183890B43838102E083898B438B
:1019C0008381704701894FF6F87211400181704799
:1019D0000A46002101894FF68F7319401143018196
:1019E000704730B504460D4629462046FFF7F0FF04
:1019F000208940F00700208130BD2DE9F0410446E8
:101A00000D4616461F46602D06D13B460122314643
:101A10002046FFF75AFE05E03B46012231462046AC
:101A2000FFF79DFE29462046FFF7D2FF208940F0B0
:101A300007002081BDE8F08130B50C460021018906
:101A4000C9B24FF6FF7505EA03251543254329431F
:101A5000018130BD2DE9F04105460E4617469846F6
:101A6000002443463A4631462846FFF7E5FF2C89D5
:101A70004FF6F870044044F007044FF68F700440AE
:101A800044F070042C81BDE8F081F0B504460D46A9
:101A900016461F463B46324629462046FFF7CCFFF6
:101AA000208940F480402081F0BD0185828270470A
:101AB0000A46002101884FF68F73194011430180B7
:101AC0007047F0B50C4615461E4600210022002343
:101AD0000189028B038C4FF6F877394021434FF68A
:101AE000FC473A4040F201173A434FF6DD773B405E
:101AF0004FF6FF7707EA06172F433B430181028326
:101B00000384F0BD0A460021018B4FF68F73194004
:101B10001143018370470A460021018B48F6FF7389
:101B200019404FF6FF7303EA0223194301837047FC
:101B30000A460021818B4FF68F7319401143818330
:101B400070470A460021818B48F6FF7319404FF613
:101B5000FF7303EA022319438183704721B102888E
:101B600042F08002028004E002884FF67F731A4040
:101B70000280704721B1828842F00402828004E032
:101B800082884FF6FB731A408280704721B18288A9
:101B900042F00802828004E082884FF6F7731A4010
:101BA0008280704721B1828842F00102828004E085
:101BB00082884FF6FE731A40828070470A460021E1
:101BC000018B4FF6F77319401143018370470A46A2
:101BD0000021018B4FF2FF7319404FF6FF7303EAA8
:101BE00002231943018370470A460021818B4FF677
:101BF000F77319401143818370470A460021818B96
:101C00004FF2FF7319404FF6FF7303EA02231943A3
:101C1000818370470A460021018B4FF6FB73194000
:101C20001143018370470A460021018B4FF6FF33B1
:101C300019404FF6FF7303EA0223194301837047EB
:101C40000A460021818B4FF6FB73194011438183B3
:101C500070470A460021818B4FF6FF3319404FF63B
:101C6000FF7303EA02231943818370470A46002168
:101C7000018B4FF67F7319401143018370470A4669
:101C80000021018BC1F30E014FF6FF7303EA02231B
:101C90001943018370470A460021818B4FF67F73F9
:101CA00019401143818370470A460021818BC1F39B
:101CB0000E014FF6FF7303EA022319438183704735
:101CC0000A460021018C4FF6FD731940114301842F
:101CD00070470A460021018C4FF6F77319401143F3
:101CE000018470470A460021018C4FF6DF731940CA
:101CF0004FF6FF7303EA02131943018470470A4643
:101D00000021018C4FF67F7319404FF6FF7303EAF1
:101D100002131943018470470A460021018C4FF6D3
:101D2000FF5319404FF6FF7303EA0223194301845E
:101D300070470A460021018C4FF2FF7319404FF69D
:101D4000FF7303EA02231943018470470A46002106
:101D5000018C4DF6FF7319404FF6FF7303EA02330F
:101D600019430184704730B5002301248C40A3B28D
:101D7000048C9C430484048C02FA01F5ADB22C431C
:101D8000048430BD30B5002304248C40A3B2048CFD
:101D90009C430484048C02FA01F5ADB22C43048404
:101DA00030BD70B5034600200024184618300125C8
:101DB0008D40ACB21D8CA5431D8409B1082909D101
:101DC00000EB6100056825F07005056005681543A6
:101DD00005600EE00D1FC5F34E052844056825F487
:101DE000E045056005684FF6FF7606EA02263543B2
:101DF000056070BD21B1028842F00202028004E059
:101E000002884FF6FD731A400280704721B10288A4
:101E100042F00402028004E002884FF6FB731A408D
:101E20000280704721B1828842F08002828004E003
:101E300082884FF67F731A408280704702884FF67F
:101E4000F7731A40028002880A4302807047828832
:101E50004FF68F731A40828082880A4382807047CF
:101E600002894FF6F8731A40028102890A430281FF
:101E7000704702894FF67F731A40028102890A4334
:101E800002817047818470478185704781867047E1
:101E90000187704781877047A0F84010704702881B
:101EA0004FF6FF431A40028002880A4302807047BF
:101EB0000146888E70470146088F70470146888F1B
:101EC00070470146B1F8400070470146888C704762
:101ED0000146088D704702460020138A0B4201D04C
:101EE000012000E000207047CA430282704730B5ED
:101EF0000246002000230024158A05EA0103958983
:101F000005EA010413B10CB1012000E0002030BD4E
:101F1000CA4302827047000010B50446FB48844261
:101F200009D101218803FEF715FF00214FF48040FD
:101F3000FEF710FF32E0F648844209D1012148043F
:101F4000FEF715FF00214FF40030FEF710FF25E0EB
:101F5000F048844209D101218804FEF708FF0021DE
:101F60004FF48020FEF703FF18E0EB48844209D1CC
:101F70000121C804FEF7FBFE00214FF40020FEF70C
:101F8000F6FE0BE0E548844208D101210805FEF782
:101F9000EEFE00214FF48010FEF7E9FE10BD2DE9A2
:101FA000F04786B005460E460024A24600BFA14673
:101FB0000027B08900B100BF2F462C8A4CF6FF7075
:101FC0000440F08804432C82AC894EF6F3100440A0
:101FD000B08831890843718908430443AC81AC8AD5
:101FE0004FF6FF400440B0890443AC8201A8FEF7DD
:101FF0002AFEC648874202D1DDF810A001E0DDF8D4
:102000000CA0A88910F4004F08D00AEBCA0000EB1E
:102010000A1031684900B0FBF1F807E00AEBCA008A
:1020200000EB0A1031688900B0FBF1F86420B8FBBE
:10203000F0F004012009642101FB1089A88910F443
:10204000004F08D0322000EBC900B0FBF1F000F0E7
:102050000700044308E0322000EB09106421B0FBC4
:10206000F1F000F00F0004432C8106B0BDE8F087CA
:102070004FF41651016000218180C18001810C2143
:10208000418100218181704710B502460020108AED
:102090004FF2FF0318400B884C8823438C8823435E
:1020A000CC8823431843108210BD00210180418059
:1020B0008180C180704721B1828942F400528281BF
:1020C00004E082894DF6FF731A4082817047F0B5B3
:1020D00003460024002600250020A1F510676A3F72
:1020E00000D100BF1846C1F3421401F01F060127BA
:1020F00007FA06F5012C01D10C3004E0022C01D1C5
:10210000103000E014301AB107682F43076002E076
:102110000768AF430760F0BD1AB1838A0B4383821F
:1021200002E0838A8B4383827047028A4FF6F07302
:102130001A400282028A0A430282704782894FF261
:10214000FF731A40828182890A438281704721B1DC
:10215000828942F00202828104E082894FF6FD7397
:102160001A4082817047028A4FF6DF731A4002825A
:10217000028A0A430282704721B1028A42F48042F5
:10218000028204E0028A4BF6FF731A400282704713
:10219000C1F308028280704701468888C0F30800B6
:1021A0007047818941F0010181817047028BD2B271
:1021B0000283028B42EA012202837047028B02F4FF
:1021C0007F420283028B0A430283704721B1828AD5
:1021D00042F02002828204E0828A4FF6DF731A40C6
:1021E0008282704721B1828A42F01002828204E02A
:1021F000828A4FF6EF731A408282704721B1828A39
:1022000042F00802828204E0828A4FF6F7731A4095
:102210008282704721B1828942F40042828103E0C8
:102220008289C2F30E028281704721B1828A42F410
:102230000062828204E0828A4FF2FF731A40828237
:102240007047828A4FF6FB731A408282828A0A4361
:102250008282704721B1828A42F00202828204E0C7
:10226000828A4FF6FD731A40828270470246002030
:10227000B1F5007F00D100BF13880B4201D00120CF
:1022800000E00020704701F40072B2F5007F00D139
:1022900000BFCA430280704770B502460024002385
:1022A00000250020A1F510666A3E00D100BFC1F3F1
:1022B000421501F01F03012606FA03F3012D02D196
:1022C0009689334006E0022D02D1168A334001E0A0
:1022D000968A33400C12012606FA04F4168834401C
:1022E00013B10CB1012000E0002070BD10B5002238
:1022F0000023A1F510646A3C00D100BF0A1201243A
:102300009440A3B2DC43048010BD000000380140BB
:102310000044004000480040004C00400050004095
:10232000012400F0C3FA482000F044FD4FF4A060FF
:10233000FDF74AFF00F018F900F0C3FD00F036FB8E
:1023400002F0A2F800F0ECFD00F083FD00F095FD36
:1023500000F0A3FD01F053FF044601F075FD00F00D
:10236000EAFC02F044FA0020194908604FF47A733D
:102370004FF4FA724FF00101084602F079FA4FF477
:102380007A735A100121022002F072FA4FF47A7324
:102390005A100121032002F06BFA4FF47A735A109D
:1023A0000121042002F064FA4FF47A735A100121DB
:1023B000052002F05DFA4FF47A735A1001210620CD
:1023C00002F056FA02E0204600F0C1FEFBE70000F2
:1023D000A481214210B5002818DB072816DCB1F5CE
:1023E000FA7F13DB40F6C41399420FDC142A00DA9B
:1023F000142247F230539A4200DD1A46DA4B23F892
:102400001010DA4B1A800123D94C237010BD70B51F
:10241000D7480078002848D00020D5490870D34814
:102420000088142190FBF1F0D2490880002437E0A5
:10243000CD4830F81400D04931F81410884213DD2B
:10244000C94931F81410CC4A32F81420881A02F025
:1024500077FBCA4941F82400084650F8240080F070
:10246000004041F824000BE0C34931F81410BE4A83
:1024700032F81420881A02F063FBC04941F82400A6
:10248000BC48008802F074FB0546BC4951F82400A2
:10249000294602F077FAB94941F82400601CC4B219
:1024A000082CC5DB0120B6490870B548007860B338
:1024B000B0480088401EAF490880002423E0AD48A2
:1024C000008848B9A84830F81400AB4921F8140036
:1024D0000020AB49087014E0A648008802F048FBD1
:1024E0000646A64850F82410304602F055FB054633
:1024F00002F00AFB9C4931F8141008449E4921F867
:102500001400601CC4B2082CD9DB70BD08B59D480E
:10251000C06940F002009B49C86142F20F709A49BD
:1025200008804720091F088097482038008840F01D
:10253000010095492039088093482C38008840F0E4
:10254000010091492C3908801D208DF800000020E1
:102550008DF8010003208DF8020001208DF80300A2
:102560006846FDF736FE08BD08B5FFF7CFFF01212D
:102570000820FEF7D5FB4FF49070ADF80000102056
:102580008DF8030003208DF8020069467F48FEF7AE
:1025900011F901211020FEF7C3FB4FF4E050ADF814
:1025A000000010208DF8030003208DF8020069461A
:1025B0007748FEF7FFF801212020FEF7B1FB042049
:1025C000ADF8000010208DF8030003208DF8020004
:1025D00069467048FEF7EEF808BD411C6A4A118052
:1025E000704700B568481C38008810F0010F70D0A3
:1025F0006948008811280ED2DFE800F0A7090E17FD
:102600001F2C344149565E6C748189969B005A494F
:102610000888FFF7E2FF98E05749098840F6C4129E
:10262000511A88B2FFF7D9FF8FE001205B4908609B
:1026300051494888FFF7D1FF87E0002057490860DB
:102640004D49498840F6C412A2EB010188B2FFF758
:10265000C4FF7AE001205249086047498888FFF7A3
:10266000BCFF72E000204E4908604349898840F66B
:10267000C412A2EB010188B2FFF7AFFF65E00120B1
:10268000484908603C49C888FFF7A7FF5DE0002083
:10269000444908603849C98840F6C412A2EB0101D8
:1026A00088B2FFF79AFF50E001203F4908603249A5
:1026B0000889FFF792FF48E000203B4908602E4957
:1026C000098940F6C412A2EB010188B2FFF785FF29
:1026D0003BE040E001203549086027494889FFF781
:1026E0007CFF32E00020314908602349498940F6E7
:1026F000C412A2EB010188B2FFF76FFF25E00120B1
:102700002B4908601C498889FFF767FF1DE00020FE
:10271000274908601849898940F6C412A2EB0101D3
:1027200088B2FFF75AFF10E01349C889FFF755FF39
:102730000BE01149C98940F6C412511A88B2FFF75B
:102740004CFF00201449088000BF00BF12480088D9
:10275000401C114908800C481C38008820F00100FA
:1027600009491C39088000BD2400002036000020E3
:10277000340000203800002014000020DC0000207D
:102780003A000020001002402C040040000C0140E0
:1027900000100140001401403C000020A80122422A
:1027A000AC012242B001224288812242948121421E
:1027B000A0812142704700BFFEE700BFFEE700BFD7
:1027C000FEE700BFFEE770477047704770470000A4
:1027D0000CB50020019000906B48006840F48030F8
:1027E0006949086000BF6848006800F40030009044
:1027F0000198401C0190009818B90198B0F5A06F9D
:10280000F1D16148006810F4003F02D0012000902F
:1028100001E0002000900098012842D15B48006848
:1028200040F01000594908600846006820F0030095
:1028300008600846006840F002000860524840689E
:10284000514948600846406848600846406840F47E
:10285000806048600846406820F47C104860084664
:10286000406840F4E81048600846006840F0807016
:10287000086000BF4448006810F0007FFAD042486A
:10288000406820F00300404948600846406840F036
:102890000200486000BF3C48406800F00C00082877
:1028A000F9D10CBD10B5FFF793FF10BD10B5364838
:1028B000006840F001003449086008464068344927
:1028C00008403149486008460068324908402E49AE
:1028D00008600846006820F48020086008464068C8
:1028E00020F4FE0048604FF41F008860FFF7DAFF15
:1028F0004FF000602849086010BD10B5002100208D
:102900000022214B5B6803F00C0121B1042906D0A1
:10291000082928D107E0214B214C236027E01F4BD9
:102920001F4C236023E0184B5B6803F47010164BB8
:102930005B6803F48032022303EB904022B9194B09
:102940004343174C23600DE00F4B5B6813F4003FCB
:1029500004D0144B4343124C236003E00F4B43431A
:102960000F4C236003E00D4B0D4C236000BF00BFF4
:10297000054B5B68C3F303130B4CE15C084B1B680E
:10298000CB40074C236010BD0010024000200240E5
:102990000000FFF8FFFFF6FE08ED00E000127A00ED
:1029A0004000002000093D004400002000B587B031
:1029B000012144F20500FEF7B3F94FF40070ADF8C1
:1029C000140003208DF8160018208DF8170005A9B3
:1029D000EB48FDF7EFFE4FF48060ADF8140048209F
:1029E0008DF8170005A9E648FDF7E4FE4FF41650F0
:1029F00001900020ADF80800ADF80A00ADF80C0019
:102A0000ADF810000C20ADF80E0001A9DD48FFF76D
:102A1000C6FA012240F22551DA48FFF758FB01219E
:102A2000D848FFF748FB25208DF8180001208DF8C5
:102A3000190000208DF81A0001208DF81B0006A84F
:102A4000FDF7C7FB07B000BD00BFCE49098811F0F4
:102A5000400FFAD0CB49091D088000BFC949098839
:102A600011F0400FFAD0704710B50246002010E078
:102A700000BFC44B1B8813F0400FFAD0135CC14C4D
:102A8000241D238000BFBF4B1B8813F0400FFAD0DA
:102A9000401C8842ECD310BD70B540F22551B948B6
:102AA000FFF7FAFB00285CD0B648FFF775FBC5B20C
:102AB000B5480078C8B9552D10D1B4480078401CED
:102AC000B24908700846007802280ED1002008702C
:102AD0000120AD490870AE49087006E00020AA49FF
:102AE0000870AB490870A9490870A7480078002809
:102AF00037D0A848A64909784554A5480078022847
:102B00000ED1A448A2490978405CA3490870084640
:102B10000078022804DA0220087000209A49087020
:102B20009B480078401C9A490870084601789A48EA
:102B30000078801C814214D19848007870B9012037
:102B400096490870002405E09248005D94490855B4
:102B5000601CC4B28E4800788442F5DB00208A49AC
:102B6000087070BDFCB504460D461646022700BF2E
:102B700000BF00BF00BF55208DF800008DF8010098
:102B80008DF802708DF803408DF804508DF80560C3
:102B9000B91C6846FFF768FFFCBD8048007820B18B
:102BA00000207E490870012070470020FCE72DE9D5
:102BB000F04104460F46154698466DB9002609E0D7
:102BC0004FF4005101EB843101EB063001F06BF959
:102BD000701CC6B2042EF3DB4FF4005101EB8431BC
:102BE00001EB85104246402101F0A2F9681CB84271
:102BF00011D16C4A4FF48071080101F073F96948F2
:102C000007554FF4805001F04EF9664A4FF4807139
:102C1000080101F08DF9BDE8F08110B5002404E051
:102C2000002060490855601C84B2FF2CF8DD4FF489
:102C3000805001F038F95B4A4FF48071080101F0CF
:102C400077F910BD2DE9F05FFFF7A7FF002870D0DE
:102C50005548006808B9012000E00020524908608A
:102C60004F48C778072F4BD004DC032F07D0062F1F
:102C70005ED131E0082F46D0192F59D14BE048489A
:102C800090F8049040794649897900EB012085B29B
:102C900000241EE004EB4400C01D414911F80080EF
:102CA00004EB44000830095C04EB440009303C4A62
:102CB000105C01EB002086B22A4631464046FFF701
:102CC00089FB2B4632460121404601F0D1FD601CB4
:102CD00084B24C45DEDB2BE0314890F804B04079FB
:102CE0002F49897900EB01201FFA80FA0022114652
:102CF0000620FFF737FF5146584600F043FF17E024
:102D000000F075FF14E0FFF788FF0022114608204D
:102D1000FFF728FF0CE0224B9A7959791879DB1DCF
:102D2000FFF745FF002211461920FFF71BFF00BFE8
:102D300000BFBDE8F09F1FB51CA103C9CDE902018A
:102D40006A460521002001F0CDF8002414E002A815
:102D5000005D1DF8041088420CD000201249086064
:102D600001F0A1F802AA0521002001F0E1F8FFF727
:102D700054FF03E0601CC4B2052CE8DB00BF1FBD9C
:102D80000008014000380140560000205500002096
:102D900057000020000200205800002054000020AE
:102DA000FC00002004030020A48121424C4F424F2C
:102DB0005400000010B504466FF00400FDF754FA0B
:102DC000E11704EB5171C910FE4A117010460078EA
:102DD00000EB4001C1EBC0104FF6FF7101EAC000EB
:102DE000F949088010BD0146F74A12884A434FF05E
:102DF000E0235A6100229A6101221A6100BF4FF05C
:102E0000E022106910F0010F02D010F4803FF6D0DC
:102E100000224FF0E0231A619A6170470146E94AA7
:102E200012784A434FF0E0235A6100229A6101224E
:102E30001A6100BF4FF0E022106910F0010F02D0BC
:102E400010F4803FF6D000224FF0E0231A619A611F
:102E5000704708B501210820FDF762FF4FF40070AC
:102E6000ADF8000010208DF8030003208DF802005B
:102E70006946D648FDF79EFC08BD08B50121102023
:102E8000FDF74EFF0120ADF8000048208DF803004B
:102E90006946CF48FDF78EFC08BD08B5012110201A
:102EA000FDF73EFF4FF40050ADF8000010208DF804
:102EB000030003208DF802006946C548FDF77AFC3F
:102EC00008BD1FB501210846FDF737FF0920ADF801
:102ED000040040F2CF20ADF800000020ADF806005D
:102EE000ADF8020069464FF08040FEF7DBF90122A1
:102EF00041218807FEF74DFD01218807FEF72EFDD1
:102F00001C208DF80C0002208DF80D0003208DF898
:102F10000E0001208DF80F0003A8FDF75AF91FBD20
:102F200000B587B001214FF40470FDF7F9FE4FF4AE
:102F30000040FDF75CFE0820ADF8040000208DF88D
:102F4000070001A9A248FDF735FCA248FDF7AAF940
:102F5000002002908DF80C008DF80D004FF46020D9
:102F600004900020059001208DF8180002A99948CE
:102F7000FDF7BFF901219748FDF7E7F99548FDF7FF
:102F800006FA00BF9348FDF707FA0028FAD19148E6
:102F9000FDF70CFA00BF8F48FDF70DFA0028FAD1B3
:102FA00001218C48FDF711FA07B000BD10B50446A9
:102FB0000723012221468748FDF733FA012185487E
:102FC000FDF703FA00BF02218248FDF76FFB0028DE
:102FD000F9D08048FDF78CFA10BD70B500240025AB
:102FE00005E00D20FFF7E2FF0444681CC5B2082D80
:102FF000F7DBE40840F6AB106043840A76490C80A6
:1030000070BD7548008870477448007888B174486E
:103010000068401C7249086002280DD30020086037
:103020007048006808B9012000E000206D49086080
:1030300002E000206B4908606B48007828B9002046
:1030400066490870694908601FE0674800780128F0
:103050001BD166480068401C644908600846006847
:1030600041F28831884203D201205C4908700CE0AB
:103070005E48006842F21071884203D2002057492E
:10308000087002E0002059490860704710B501211E
:103090008807FEF72CFF002835D001218807FEF7AE
:1030A00037FFFFF7B1FF52480068401C50490860E5
:1030B0000A2828D3002008604E480068401C4D496B
:1030C00008604D480088401C4B490880FFF799FF75
:1030D000B0F5C85F0EDA49480088401C47490880AF
:1030E0000846008841F2883188420CDD01203E49C3
:1030F000087008E00020414908804148007810B974
:1031000000203949087010BD10B53A4800683D49A3
:10311000096888421AD93B4800680A303949086072
:1031200039480068401C384908600846007810F0AB
:10313000010F01D1FFF76BF9334800683221B0FB72
:10314000F1F201FB120008B9FFF747FF10BD70B59F
:103150000546FFF7D9FFFFF775FD01F079FA00F09A
:1031600098FD2A48006838BB3C20FFF73CFE274802
:10317000006828B926480078401C254908701BE0E3
:1031800023480078142807DD002021490870002119
:10319000642000F0F7FC70BD00201D4908701D4838
:1031A00000686FEA00001C49C1F8A4014FF001015A
:1031B0004FF0640000F0E6FC002D73D10E4800884B
:1031C00032282BE06400002066000020000C014043
:1031D0000010014000240140980000207A000020E7
:1031E0007C000020B401224260000020800000200A
:1031F000840000205C000020620000208800002085
:10320000680000208C000020900000200001224275
:1032100096000020A48121420080214242DD00204E
:10322000FE49088001F079F80446FD48007800283E
:103230007DD1012001F0C4F80646042001F0CFF84A
:1032400006427DD000F0D3FC4FF47A7240F2DC519C
:103250000120FFF7BFF84FF47A7240F2DC510220F0
:10326000FFF7B8F84FF47A7240F2DC510320FFF711
:10327000B1F84FF47A7240F2DC510420FFF7AAF85B
:103280004FF47A7240F2DC510520FFF7A3F84FF4B7
:103290007A7240F2DC510620FFF79CF80120E149E8
:1032A000087019E06BE34FF4FA70DF49DD4A1278D9
:1032B00021F812000846DB49097830F8110082B283
:1032C0004FF47A730121D748007801F0D1FAD5483C
:1032D0000078401CD3490870D24800780728E2DB08
:1032E0000120CF490870D1490870D1490870D149EF
:1032F0000870D14800686FEA0000D049C1F8A40105
:103300004FF05000FFF76FFD0020C94908703220D0
:10331000FFF769FD0120C6490870C64908705020B2
:10332000FFF761FD0020C2490870C44801E027E3AF
:1033300006E0D0F8A401C043C049C1F8A4011EE3CF
:1033400054B1012001F03CF830B9BB4800686FEA85
:103350000000BA49C1F8A401A4F104000D287DD2EF
:10336000DFE800F0FE45276307A5FD85FCC5FBE50A
:10337000FA00B3488089143081B232220620FFF768
:1033800029F8A94880890A3000B2A74988810846EF
:10339000B0F90C00B0F57A7F02DD4FF47A708881C5
:1033A000A148808982B232230121062001F060FA0F
:1033B000E5E2A3488089143881B232220620FFF763
:1033C00009F8994880890A3800B2974988810846E7
:1033D000B0F90C00002801DA002088819248808929
:1033E00082B232230121062001F042FAC7E294485A
:1033F0004089143081B232220520FEF7EBFF8A4863
:1034000040890A3800B2884948810846B0F90A0064
:10341000002801DA002048818348408982B23223A3
:103420000121052001F024FAA9E2854840891438D9
:1034300081B232220520FEF7CDFF7B4840890A3059
:1034400000B2794948810846B0F90A00B0F57A7FA0
:1034500002DD4FF47A704881734800E066E14089EC
:1034600082B232230121052001F002FA87E274487A
:103470008088143081B232220220FEF7ABFF6A4806
:1034800080880A3000B2684988800846B0F9040094
:10349000B0F57A7F02DD4FF47A70888062488088C8
:1034A00082B232230121022001F0E2F967E264488E
:1034B0004088143081B232220120FEF78BFF5A4837
:1034C00040880A3000B2584948800846B0F90200E6
:1034D000B0F57A7F02DD4FF47A7048805248408818
:1034E00082B232230121084601F0C2F947E2544872
:1034F0000089143881B232220420FEF76BFF4A485B
:1035000000890A3000B2484908810846B0F908002D
:10351000B0F57A7F02DD4FF47A7008814248008965
:1035200082B232230121042001F0A2F927E24448AB
:103530000089143081B232220420FEF74BFF3A4852
:1035400000890A3800B2384908810846B0F90800F5
:10355000002807DA002004E07EE048E00BE028E0E5
:1035600098E008813048008982B23223012104208A
:1035700001F07EF903E232488088143881B23222A9
:103580000220FEF727FF284880880A3800B2264923
:1035900088800846B0F90400002801DA00208880FD
:1035A0002148808882B232230121022001F060F993
:1035B000E5E123484088143881B232220120FEF729
:1035C00009FF194840880A3800B217494880084660
:1035D000B0F90200002801DA002048801248408833
:1035E00082B232230121084601F042F9C7E11448B2
:1035F000C088143081B232220320FEF7EBFE0A4865
:10360000C0880A3000B20849C8800846B0F90600F0
:10361000B0F57A7F17DD4FF47A7013E06200002076
:10362000950000209A0000206A00002094000020ED
:103630006800002060000020A48121420080214217
:1036400024000020C880FB48C08882B232230121B8
:10365000032001F00DF992E1F748C088143881B2D7
:1036600032220320FEF7B6FEF248C0880A3800B2C4
:10367000F049C8800846B0F90600002801DA0020A9
:10368000C880EC48C08882B232230121032001F0B7
:10369000EFF874E14FF47A7240F2DC510120FEF74A
:1036A00099FE4FF47A7240F2DC510220FEF792FE4E
:1036B0004FF47A7240F2DC510320FEF78BFE4FF498
:1036C0007A7240F2DC510420FEF784FE4FF47A72E5
:1036D00040F2DC510520FEF77DFE4FF47A7240F295
:1036E000DC510620FEF776FE0120D449087018E070
:1036F0004FF4FA70CF49D14A127821F812000846E7
:10370000CE49097830F8110082B24FF47A73012162
:10371000CA48007801F0ACF8C8480078401CC74996
:103720000870C64800780728E2DB28E1072000F08F
:1037300072FEFF281ED1C048C0881E3081B23C22D4
:103740000320FEF747FEBB48C0880A3000B2B949E3
:10375000C8800846B0F90600B0F57A7F02DD4FF464
:103760007A70C880B348C08882B232230121032016
:1037700001F07EF8072000F04EFEE0B9AE48C088A8
:103780001E3881B23C220320FEF724FEA948C088DF
:103790000A3800B2A749C8800846B0F906000028D8
:1037A00001DA0020C880A348C08882B232230121F8
:1037B000032001F05DF8062000F02DFE40BBA0487C
:1037C00000686FEA00009F49C1F8A4019A48008987
:1037D00000F11E0081B24FF03C024FF00400FEF7F2
:1037E000F9FD944800890A3000B2924908810846E0
:1037F000B0F90800B0F57A7F02DD4FF47A700881E5
:103800008C48008982B232230121042001F030F873
:10381000062000F000FEFF2826D1894800686FEAE4
:1038200000008849C1F8A40183480089A0F11E0066
:1038300081B24FF03C024FF00400FEF7CBFD7D4813
:1038400000890A3800B27B4908810846B0F90800AF
:10385000002801DA002008817648008982B23223EC
:103860000121042001F004F8082000F0D4FDE0B9A3
:10387000714840891E3881B23C220520FEF7AAFD1E
:103880006C4840890A3800B26A4948810846B0F954
:103890000A00002801DA002048816648408982B287
:1038A00032230121052000F0E3FF082000F0B3FDE2
:1038B000FF281ED1604840891E3081B23C2205207D
:1038C000FEF788FD5B4840890A3000B259494881BB
:1038D0000846B0F90A00B0F57A7F02DD4FF47A703D
:1038E00048815448408982B232230121052000F0EA
:1038F000BFFF052000F08FFDF0B94F4880891E30D2
:1039000081B23C220620FEF765FD4A4880890A30D4
:1039100000B2484988810846B0F90C00B0F57A7FBA
:1039200002DD4FF47A7088814248808982B2322366
:103930000121062000F09CFF052000F06CFDFF280F
:103940001CD13D4880891E3881B23C220620FEF7FA
:1039500041FD384880890A3800B2364988810846D6
:10396000B0F90C00002801DA0020888131488089F4
:1039700082B232230121062000F07AFF00BFFBE073
:10398000012000F01DFD88B3042000F028FD68B37D
:1039900000202D4908702D49087001202C4908701D
:1039A0002C490870264800686FEA00002549C1F8D4
:1039B000A4014FF05000FFF716FA002024490870C8
:1039C0003220FFF710FA01202149087021490870C0
:1039D0005020FFF708FA00201D4908701948D0F858
:1039E000A401C0431749C1F8A401C5E0FFE76CB1C9
:1039F0001648007850B9012000F0E2FC30B91048B8
:103A000000686FEA00000F49C1F8A401112C10D220
:103A1000DFE804F009B1B1B1222D4E38439BA685F1
:103A200090597A646F000948007810B10020074966
:103A30000870A0E06A000020240000209A00002006
:103A4000A4812142008021429500002094000020A2
:103A500068000020600000204948007818B9012162
:103A6000002000F08FF801204549087083E04448A9
:103A7000007818B90121084600F084F80120404977
:103A8000087078E03E48007818B90121022000F063
:103A900079F801203A4908706DE03948007818B982
:103AA0000121032000F06EF801203549087062E022
:103AB0003348007818B90121042000F063F8012090
:103AC0002F49087057E02E48007818B901210520C9
:103AD00000F058F801202A4908704CE02848007886
:103AE00018B90121062000F04DF801202449087082
:103AF00041E02348007818B90121072000F042F87E
:103B000001201F49087036E01D48007818B90121CE
:103B1000082000F037F80120194908702BE01848F8
:103B2000007818B90121092000F02CF8012014496F
:103B3000087020E01248007818B901210A2000F02E
:103B400021F801200E49087015E00D48007818B9D9
:103B500001210B2000F016F80120094908700AE045
:103B60000748007818B901210C2000F00BF801205B
:103B70000349087000BF00BF00BFFFF70CBB000087
:103B80009400002038B504460D4604F580506A467E
:103B9000012100F0A7F99DF80000002826DD9DF81E
:103BA00000006849087068480078A04209D054B9FC
:103BB0000020664908706649086001206549087060
:103BC00001E0654805606148007878B95E48047096
:103BD000614805600020614908705D490860012066
:103BE0005A4908705E4800685E49086038BD002088
:103BF000564908705649086001205649087000204F
:103C00005649087070472DE9F04790B005460E46BA
:103C100000244FF4005101EB853101EB86106A4618
:103C2000402100F05FF99DF800909DF801009DF89B
:103C3000021000EB0127B9F1080F05DDFFF7D7FFF0
:103C4000002010B0BDE8F08700241EE004EB440023
:103C5000C01C1DF800A004EB4400001D1DF800105E
:103C600004EB4400401D1DF8000001EB00201FFA8A
:103C700080F8BAB241465046FEF7ACFBBBB24246B2
:103C80000121504600F0F4FD641C4C45DED3B8B26F
:103C9000D7E710B52D480078002845D02D4800788A
:103CA00001280ED100202B4908702C4801782648A5
:103CB0000078FFF7A8FF2B490968084429490860E4
:103CC0003EE02748006827490968884238D3012028
:103CD0002049087021480078401CC0B21F49087074
:103CE0001849097888422BDB00201C4908701A48C3
:103CF000006828B316480068401C1549086016493A
:103D0000096888421CD3002211460720FEF72AFFCB
:103D100000200E4908700C480078642810D1012159
:103D20006520FFF72FFF0BE000200C4908700849C1
:103D300008600120074908700948006809490860BF
:103D400010BD0000AD0000209D0000209C00002060
:103D5000A4000020AC000020A0000020AE00002045
:103D60005C000020A800002070B50546002405E096
:103D7000601CC4B2C82C01DD002070BD0221814846
:103D8000FDF785F90028F3D029467E48FDF72CF988
:103D9000002400BF01217B48FDF779F90028F9D004
:103DA000641CC82C01DD0020E7E77648FDF71EF90A
:103DB000C0B2E2E708B510217348FCF7A6FD012167
:103DC0000420FCF7ADFF1020ADF800008DF80300D3
:103DD00003208DF8020069466B48FCF7EBFC0121DB
:103DE00041F20400FCF79CFFE020ADF80000182031
:103DF0008DF8030003208DF8020069466248FCF745
:103E0000D9FCE0216048FCF780FD00205F49088074
:103E10004FF482704880002088800220C8800120F2
:103E2000088140024881082088810020C88107203D
:103E300008825448FDF702F801215248FDF7A3F823
:103E4000FF20FFF791FF08BD10B5FFF7B3FF9620E5
:103E5000FEF7C9FF10BD10B5002400204C490860D2
:103E60004FF00500FFF780FFFF20FFF77DFF0446BE
:103E700001204849C1F89001204610BD10B500BF8F
:103E8000FFF7E9FF10F0010FFAD110BD10B50020C7
:103E90003F4908604FF00600FFF766FF01203D49EB
:103EA000C1F8900110BD10B50446FFF7EFFFFFF712
:103EB000E5FF0020364908604FF02000FFF754FF6F
:103EC000C4F30740FFF750FFC4F30720FFF74CFF90
:103ED000E0B2FFF749FF01202E49C1F89001FFF73A
:103EE000CDFF10BD2DE9F04104460E4617460020D7
:103EF000274908604FF00300FFF736FFC4F307407F
:103F0000FFF732FFC4F30720FFF72EFFE0B2FFF701
:103F10002BFF002505E0FF20FFF726FF7855681CE2
:103F200085B2B542F7D3012019490860BDE8F08198
:103F30002DE9F04104460E461746FFF7A7FF002083
:103F4000134908604FF00200FFF70EFFC4F307406B
:103F5000FFF70AFFC4F30720FFF706FFE0B2FFF701
:103F600003FF002504E0785DFFF7FEFE681C85B2C4
:103F7000B542F8D3012006490860FFF77FFFBDE88E
:103F8000F0810000003001400008014004040020DE
:103F9000900121420000214210B504462046FEF760
:103FA0003DFF10BD38B50446012000900020F749C0
:103FB0004870012000902DE0BDF80000204203D0A1
:103FC0000120F349086002E00020F14908604FF049
:103FD0000A00FFF7E1FF0020EE4908604FF02800DB
:103FE000FFF7DAFF0120EC49C1F89401EB480068C3
:103FF00030B1E6484078BDF800100843E349487006
:104000000A20FFF7C9FFBDF800004FF6FF7101EA73
:1040100040000090BDF80000FF28CDDD38BD10B590
:104020000020DF490860DF490878FFF7BBFFDD4962
:104030004878FFF7B7FF0120DB49C1F88001D3487A
:104040004078732801D1002010BD0120FCE710B595
:104050000020D34908604FF03200FFF79DFF012098
:10406000FFF7A0FF4320FFF79DFF0020FFF79AFF17
:104070000020FFF797FF5A20FFF794FF5A20FFF721
:1040800091FF5A20FFF78EFF5A20FFF78BFF5A202F
:10409000FFF788FF0120C449C1F880013220FFF7F3
:1040A0007BFF10BD10B50020BD4908604FF0320005
:1040B000FFF772FF0120FFF775FF4D20FFF772FF3A
:1040C0000020FFF76FFF0020FFF76CFF0120FFF7D4
:1040D00069FF0120B449C1F880013220FFF75CFF7D
:1040E00010BD10B50020AE4908604FF03200FFF758
:1040F00053FF0120FFF756FF4420FFF753FF002036
:10410000FFF750FF0120FFF74DFF0320FFF74AFFA5
:104110000020FFF747FF0020FFF744FF0020FFF7D4
:1041200041FF0020FFF73EFF01209F49C1F88001B9
:104130003220FFF731FF10BD10B50020984908600C
:104140004FF03200FFF728FF0120FFF72BFF43203D
:10415000FFF728FF0020FFF725FF0120FFF722FFD0
:104160000020FFF71FFF0020FFF71CFF0020FFF7D4
:1041700019FF0020FFF716FF0020FFF713FF0120B3
:104180008949C1F880013220FFF706FF10BD10B544
:104190000020834908604FF03200FFF7FDFE012048
:1041A000FFF700FF4220FFF7FDFE0020FFF7FAFEB9
:1041B0000020FFF7F7FE0020FFF7F4FE01207A4908
:1041C000C1F880013220FFF7E7FE10BD10B5642072
:1041D000FEF709FEFFF7DBFFFFF7D9FFFFF7D7FF79
:1041E000FFF7AAFFFFF77DFFFFF75CFFFFF72FFF49
:1041F000FFF715FF08B9002010BD0120FCE738B516
:1042000001210820FCF78CFD4FF48050ADF8000030
:1042100048208DF8030069466448FCF7CBFA012179
:104220000820FCF77DFD0320ADF8000010208DF87C
:10423000030003208DF8020069465C48FCF7BAFAD7
:1042400001211020FCF76CFD2020ADF800001020AB
:104250008DF8030003208DF8020069465448FCF7EE
:10426000A9FAFFF7B3FF0446204638BD1CB500206D
:104270004B4908604FF00A00FFF78EFE4949087865
:10428000FFF790FE47494878FFF78CFE0220019027
:1042900031E00120009022E000203E4908604FF00C
:1042A0003200FFF779FE01203B49C1F894013B48F9
:1042B000006850B135489DF80410405CBDF800100E
:1042C000084332499DF8042088542D20FFF764FEEE
:1042D000BDF800004FF6FF7101EA40000090BDF804
:1042E0000000FF28D8DD0A20FFF756FE9DF80400E5
:1042F000401CC0B201909DF804000928C9DB0120D0
:10430000274908601CBD002004E000211F4A115409
:10431000411CC8B20928F8DB704710B5FFF7F3FF5E
:10432000FFF7A4FF23480088234908801748C07876
:104330001649097940EA01201E49088000240FE04F
:104340001E4810F81400401E012101FA00F019491E
:104350000988084202D1601CC0B210BD601CC4B202
:10436000102CEDDB0020F8E70146481E01228240B8
:1043700091B2114800880F4A128850400840002826
:1043800001DD012070470020FCE70000160400203A
:104390008481214294012242000022423081214244
:1043A00080812142B000002000802142000C0140A9
:1043B00000100140D4000020D2000020B2000020F4
:1043C0000146481E0122824091B22B48008821EA12
:1043D0000000002801DD012070470020FCE700B547
:1043E00003461846FFF7C0FF28B11846FFF7E8FF5D
:1043F00008B1012000BD0020FCE700B503461846C7
:10440000FFF7B2FF28B11846FFF7DAFF08B901201D
:1044100000BD0020FCE701461848405C704770B5BD
:1044200005460C460020164908604FF03200FFF7A1
:10443000B3FD0120FFF7B6FD4220FFF7B3FD0020DA
:10444000FFF7B0FD2846FFF7ADFD2046FFF7AAFDB8
:104450000020FFF7A7FD0020FFF7A4FD0020FFF7D5
:10446000A1FD0020FFF79EFD01200649C1F8800153
:104470003220FFF791FD70BDD4000020160400200B
:10448000808121420080214200B587B0012188044B
:10449000FCF753FC01210920FCF742FC4FF480603B
:1044A000ADF8140003208DF8160018208DF81700C1
:1044B00005A99E48FCF77EF94FF40060ADF81400A2
:1044C00048208DF8170005A99848FCF773F94FF4B8
:1044D000165001900020ADF80800ADF80A00ADF8C4
:1044E0000C00ADF810000C20ADF80E0001A99048AA
:1044F000FDF755FD012240F225518D48FDF7E7FDFE
:1045000001218B48FDF7D7FD27208DF818000120E9
:104510008DF8190002208DF81A0001208DF81B007B
:1045200006A8FBF756FE07B000BD10B540F22551B6
:104530007F48FDF7B1FE00284CD07D48FDF72CFEEA
:10454000C4B27C480078C8B9552C10D17A4800789C
:10455000401C794908700846007802280ED10020D6
:1045600008700120734908707449087006E0002043
:1045700070490870714908706F4908706D4800787B
:1045800040B36F486D49097844546C48007802285C
:104590000ED16B4869490978405C6A490870084641
:1045A0000078022804DA02200870002061490870AF
:1045B00062480078401C61490870084601786148EB
:1045C0000078801C814205D101205F4908700020DD
:1045D0005849087010BD10B50246002010E000BF19
:1045E000534B1B8813F0400FFAD0135C504C241D22
:1045F000238000BF4E4B1B8813F0400FFAD0401CA5
:104600008842ECD310BD5048007820B100204E49BC
:104610000870012070470020FCE7FCB504460D46F9
:104620001646022700BF00BF00BF00BF55208DF80F
:1046300000008DF801008DF802708DF803408DF8B0
:1046400004508DF80560B91C6846FFF7C4FFFCBD37
:104650002DE9F05FFFF7D7FF002865D03B480068E1
:1046600008B9012000E00020384908603448C578C6
:10467000072D40D004DC032D07D0062D53D12BE0AD
:10468000082D3BD0192D4ED140E02D4807794079B7
:104690002B49897900EB01201FFA80F8002418E0EB
:1046A00004EB4400C01D26490E5C04EB44000830B6
:1046B000095C04EB44000930214A105C01EB002046
:1046C0001FFA80F9424649463046FDF783FE601CDA
:1046D00084B2BC42E4DB26E0194890F804B040798B
:1046E0001749897900EB01201FFA80FA5146584694
:1046F000FFF748FA17E0FFF77AFA14E0FEF78DFAB1
:10470000002211460820FFF788FF0CE00C4B9A7935
:1047100059791879DB1DFEF74AFA00221146192053
:10472000FFF77BFF00BF00BFBDE8F09F000C01401A
:1047300000480040D8000020D7000020D900002009
:104740001F040020DA000020D6000020A4812142AE
:1047500000B587B001214804FCF7EFFA01210520DC
:10476000FCF7DEFA0420ADF8140003208DF81600E3
:1047700018208DF8170005A96148FCF71BF80820E0
:10478000ADF8140048208DF8170005A95C48FCF727
:1047900011F84FF4E13001900020ADF80800ADF8B9
:1047A0000A00ADF80C00ADF810000C20ADF80E00BA
:1047B00001A95448FDF7F3FB012240F2255151486D
:1047C000FDF785FC01214F48FDF775FC27208DF88A
:1047D000180001208DF8190002208DF81A00012020
:1047E0008DF81B0006A8FBF7F4FC07B000BD08B568
:1047F000FFF7AEFF01210420FCF792FA0320ADF889
:10480000000010208DF8030003208DF80200694697
:104810003B48FBF7CFFF00203B4908604FF0010009
:104820003A49C1F8840108BD10B50246002010E0E5
:1048300000BF344B1B8813F0400FFAD0135C314C8F
:10484000241D238000BF2F4B1B8813F0400FFAD08C
:10485000401C8842ECD310BD10B540F225512948C8
:10486000FDF71AFD18B12748FDF796FCC4B210BD3C
:104870002DE9F04785B081460E4617469846042537
:104880004FF0000A012E01D1072500BF00BF5520BF
:104890008DF800008DF801008DF802908DF803501E
:1048A0008DF80460F8B28DF8050038128DF8060016
:1048B00008F0FF008DF807004FEA28208DF8080067
:1048C000022403E01DF804008244641C681C844236
:1048D000F8D96FEA0A00C1B2A81C0DF80010002038
:1048E000094908604FF001000849C1F8840105F149
:1048F00003016846FFF798FF05B0BDE8F0870000A8
:104900000008014000440040800121420000214293
:10491000704770477047754600F028F8AE460500AE
:104920006946534620F00700854618B020B5FBF7CE
:1049300039FCBDE820404FF000064FF000074FF073
:1049400000084FF0000B21F00701AC46ACE8C009AD
:10495000ACE8C009ACE8C009ACE8C0098D467047B6
:104960000446AFF300802046FBF707FC0048704781
:104970002405002001491820ABBEFEE726000200F6
:10498000704700004FF47F0C1CEAD0121EBF1CEAD7
:10499000D11392EA0C0F93EA0C0F00F0858090EA95
:1049A000010F48BF42F4807240F4000C41F4000053
:1049B0002CF07F4120F07F4000B58142A2EB030242
:1049C0000FF2081CACEB504EC0F100009EF800E066
:1049D0004FEA4E0E00FB0EFC38BF49004FEA2C1C7C
:1049E00002F5FA020CFB0EF34FEACE1E4FEA112C31
:1049F0004FEAC1210EEB635E42EB22420EFB0CFC40
:104A00004FEA1C5300FB03114FEA112C4FEA01310E
:104A10000EFB0CFC4FEADC4C00FB0C11C14228BF22
:104A200009184CEB03335DF804EB10EB410143EB49
:104A3000C250B2F57C0F38BF704729D512F0F00F85
:104A40001CBF00F1C04000F000407047008182832D
:104A50008485868788898B8C8D8E8F91929395968D
:104A600097999A9C9D9FA0A2A3A5A7A8AAACAEB017
:104A7000B2B3B5B7B9BCBEC0C2C5C7C9CCCED1D41C
:104A8000D7D9DCDFE2E6E9ECF0F3F7FAFE0000004C
:104A90004FEA400C0CF1807CBCF17E4F28BF704780
:104AA000B0F1C04000F03FB990EA010F0CEAD11319
:104AB00048BF42F48072624538BF634507D213F4A1
:104AC0007F0F16D080EA010000F00040704710B55B
:104AD00000F0E3F8097EFC3E00F005B880EA010032
:104AE00000F00040704780EA010000F0004000F054
:104AF0001AB912F47F0F04BF0248704780EA010020
:104B000000F011B90000C07F41000B0ED3F19E02EE
:104B100008D950F400034FEA032323FA02F048BFF8
:104B20004042704710B500F0B8F800BF49922480A9
:104B3000002070476FF0004282EA200070470000BA
:104B400010F0004148BF4042B0FA80F310FA03F27F
:104B5000C3F19D030BD051EAC35101EB1220530660
:104B600038BF704700F1010008BF20F00100704716
:104B7000B0FA80F310FA03F2C3F19D030AD0D9050D
:104B800001EB1220530638BF704700F1010008BF47
:104B900020F00100704700004FF47F0C1CEAD01297
:104BA0001EBF1CEAD11392EA0C0F93EA0C0F00F01F
:104BB000478090EA010F48BF42F480724FF0004CEA
:104BC0004CEA00204CEA012102EB0302A0FB011396
:104BD000A2F50002002918BF43F001035B0028BFC3
:104BE0004FEA330342EB22425FEA132C4CEBC250F4
:104BF0002EBFBCEB436FB2F57C0F70474FEA036CDE
:104C0000BCF1004F08BF20F00100B2F57C0F38BFA7
:104C100070470BD582F0FF0212F5803FC8BF704786
:104C200000F1C040D8BF00F00040704700F5000C14
:104C30005FEA4C0C48BF7047B0F1C04000F073B859
:104C400090EA010F0CEAD11348BF42F4807262452A
:104C500038BF634504D280EA010000F0004070478D
:104C600010B500F01AF800BF8900013E00F007B847
:104C700000F009B85FEA410C5FEA1C6C08D080EADA
:104C8000010000F050B85FEA400C5FEA1C6CF6D1FE
:104C90004FF00040A0F5800070470EF1020E2EF09C
:104CA000030E5EF8044B244204D44FEA4102B2F1F1
:104CB0007F4F11D84FEA4003B3F17F4F0CD80ED18C
:104CC0004FEAD07CB2F17F4F0CEB4C0C0CF1020C94
:104CD00008BF4CEBD17C04E04FF0080C01E04FEA38
:104CE000D17C0CEB4C0324FA03F404F00704B4F178
:104CF000040C06D20EEB840CBDE810404CF0010C05
:104D00006047DFE80CF0070802024FF00040A0F512
:104D1000800010BD0846420018BFD2F1807288BFE3
:104D200000F0004010BDFF2141EAD050C00570479F
:104D3000504D000800000020DC00000028010008A1
:104D40002C4E0008DC000020AC0A000044010008E2
:104D50000000000001020304010203040607080921
:104D600002040608DC05DC05DC05DC05DC05DC05E9
:104D7000DC05DC05DC05DC05DC05DC05DC05DC052B
:104D8000DC05DC050000D007000000000100000089
:104D900000A24A0400000000000000000102030419
:104DA00006070809000000000200000000000000E3
:104DB00000000000000000000000F401F401F40114
:104DC000F401F401F401F401F4010000000000001A
:104DD0000000000000000000000000000A000000C9
:104DE00000000000000000000000000000000000C3
:104DF00001000000000000000000000001000000B1
:104E00000142010002000300040005000600070043
:104E1000080009000A000B000C000D000E000F0036
:0C4E20001000FFFF000000000000020076
:04000005080000ED02
:00000001FF
